:041800000CEF0CF0ED
:10180800FACF4BF0FBCF4CF0E9CF4DF0AEED14F032
:0C18180001EF16F0020E00EC1BF01200B5
:021826002000A0
:061D480028C408F512009A
:101D4F00020104FC030103010EE2EC19F012000280
:101D5F000EE2EC19F0120000D0A6B2FED712000569
:101D6F00010851ECEC13F062EC12F01200D6CF2FF9
:101D7F00F0D7CF30F02FC02DF030C02EF01200D69C
:101D8F00CF62F0D7CF63F062C060F063C061F01232
:101D9F00002DC0A9FFA69CA69EA68000F000F0A86B
:101DAF005000D012000001606F010E206E60C0F075
:101DBF00F00201005100D0120060C0A9FFA69CA63E
:101DCF009EA68000F000F0A85000D01200000E2E4A
:101DDF006E000E2D6ED0EC0EF0166E010E16640313
:101DEF00D0000E166E00D01200280E016E040E02E7
:101DFF006E000E066E080E056E480E076E1D0E085D
:101E0F006E048E1200000E0001616F000E606FE411
:101E1F00EC0EF0166E010E166403D0000E166E0057
:101E2F00D012002D6E2D507F0BD56E000ED76E0089
:101E3F000ED66EF2942DAE02D0F28A01D0F29AD560
:101E4F008E12001650050DAB0EF3240001616F7F4B
:101E5F000EF4200001626F050E0001636FBFEC13DB
:101E6F00F012001B50040D4A0EF3240001616F7F26
:101E7F000EF4200001626F040E0001636FBFEC13BC
:101E8F00F012001D50050D5E0EF3240001616F7FEF
:101E9F000EF4200001626F050E0001636FBFEC139B
:101EAF00F012001F50060DCB0EF3240001616F7F5F
:101EBF000EF4200001626F060E0001636FBFEC137A
:101ECF00F012001550040D140EF3240001616F7F02
:101EDF000EF4200001626F040E0001636FBFEC135C
:101EEF00F012001E50060DAA0EF3240001616F7E42
:101EFF000EF4200001626F060E0001636FBFEC133A
:101F0F00F012002150050DB50EF3240001616F7F13
:101F1F000EF4200001626F050E0001636FBFEC131A
:101F2F00F012002250040D9F0EF3240001616F7F09
:101F3F000EF4200001626F040E0001636FBFEC13FB
:101F4F00F01200010E0001606F030E1618D8B407CF
:101F5F00D0040E1618D8B403D0000E0001606F0025
:101F6F0001605100D012000001F051205CD8B00A7E
:101F7F00D02050010D000EF324D96E020EF420DA9A
:101F8F006EDF5002D0000E00D01200162A010E167E
:101F9F006403D0000E166E00D0B3EC0EF0000E00EE
:101FAF0001616F000E606F16C062F0BBEC11F01292
:101FBF0000698468986D82010E0001E36F000E3A8C
:101FCF006E750E396E000E3B6E000E3C6E000E3EAF
:101FDF006E000E3D6E1AEC15F012001B2A040E1B3C
:101FEF006403D0000E1B6E00D0B3EC0EF0000E0099
:101FFF0001616F030E606F1BC062F0BBEC11F03913
:10200F00EC0FF012001D2A030E1D6403D0000E1DED
:10201F006E00D0B3EC0EF0000E0001616F060E6083
:10202F006F1DC062F0BBEC11F049EC0FF012001FF6
:10203F002A1F50D8B403D0000E1F6E00D0B3EC0E81
:10204F00F0000E0001616F010E606F1FC062F0BBE8
:10205F00EC11F059EC0FF01200152A060E1564035F
:10206F00D0000E156E00D0B3EC0EF0000E00016123
:10207F006F050E606F15C062F0BBEC11F069EC0FCD
:10208F00F012001E2A050E1E6403D0000E1E6E00F5
:10209F00D0B3EC0EF0000E0001616F040E606F1EE6
:1020AF00C062F0BBEC11F079EC0FF01200212A01A5
:1020BF000E216403D0000E216E00D0B3EC0EF000A1
:1020CF000E0001616F020E606F21C062F0BBEC1158
:1020DF00F089EC0FF01200222A020E226403D000C6
:1020EF000E226E00D0B3EC0EF0000E0001616F08EF
:1020FF000E606F22C062F0BBEC11F099EC0FF01282
:10210F00002DC033F02EC034F009D033C0D9FF34C6
:10211F00C0DAFF2FC0DFFF334A342A00D03106D890
:10212F00A032063128F2E13228D8A4EFD7120000EE
:10213F0001626FFE0EF66E170EF76E0900020EF5B6
:10214F005E0900000EF55AD8A005D0000162517D3E
:10215F00EC14F005D000016251D1EC12F000D01256
:10216F00000001626FFE0EF66E170EF76E09000289
:10217F000EF55E0900000EF55AD8A005D0000162D9
:10218F0051D1EC12F005D0000162517DEC14F0003A
:10219F00D012001850D8A415D0000E6D6E000E6925
:1021AF006E160E6F6E9F0E6B6E7B0E696ED08EA2CB
:1021BF008AA08AF28E01D06D866DA6FDD7010E180A
:1021CF006E00D0120060C066F061C067F00AD06682
:1021DF00C0D9FF67C0DAFF62C0DFFF0001664B673F
:1021EF002B00D000016407D8A0650700016429EF18
:1021FF00E100016529D8A4EBD71200000168510056
:10220F00016A03F3CF6CF0F4CF6DF0000168510059
:10221F00016B03F35000016D270001695100016A42
:10222F0003F35000016D276CC068F06DC069F000BA
:10223F00D01200000E0001E36F000E3A6E740E39DB
:10224F006E000E3B6E000E3C6E000E3E6E000E3D9D
:10225F006E1AEC15F06D92699468B869A804D0688D
:10226F009802D0689400D068B4FCD71200000160C7
:10227F005100016111D8A402D0270E14D0000160C3
:10228F005100016111D8B40CD00001615109E10A6C
:10229F000E0001605DD8B004D0000160511D0F0227
:1022AF00D02C0E00D01200386E35A406D0000E2DA3
:1022BF006E385099EC17F000D035A206D0010E2DD4
:1022CF006E385099EC17F000D03850010D700EF3A6
:1022DF0024366E0F0EF420376E36C0D9FF37C0DAB2
:1022EF00FF35C0DFFF12000001F051205CD8B014A1
:1022FF00D02050010D000EF324D96E020EF420DA17
:10230F006EDF500001606F202A000160510001D87C
:10231F00A409D002D007D000D0000E0001F06FF05A
:10232F00C020F000D012000001606FFE0E20600C84
:10233F00D02050010D000EF324D96E020EF420DAD6
:10234F006E60C0DFFF202A00D0FE0E20600BD02071
:10235F0050010D000EF324D96E020EF420DA6E0038
:10236F000EDF6E00D01200000E0001636F60C0A977
:10237F00FF62C0A8FFA69EA69CA684000EF2BE0117
:10238F000E0001636FF29E550EA76EAA0EA76EA6E2
:10239F008200D0A6B2FED7000163B102D0F29E0137
:1023AF00D0F28EA69412006DA218D0010E9FEC10E1
:1023BF00F0020E9FEC10F0030E9FEC10F013D00DF7
:1023CF00D0B7EC0EF00FD0010EB8EC10F0020EB833
:1023DF00EC10F0030EB8EC10F005D01850200AD80E
:1023EF00B4EFD7F1D7120070A01ED011C0D9FF12D1
:1023FF00C0DAFF800EDE18D8A415D009C0D9FF0AA5
:10240F00C0DAFF840EDE18D8A40DD011C0D9FF1288
:10241F00C0DAFF0C0EDF6E11C0D9FF12C0DAFF0059
:10242F000EDB8E00D07090689A12000001616F165B
:10243F0050D8B403D01604D8A416D0F2C060F0223E
:10244F000E00016017D8B403D00001618500D000E1
:10245F0001F3A103D00001618300D00001F3A303B6
:10246F00D00001618100D00001615100D012000045
:10247F0001E251D8B41ED00001E351D8B41AD0A054
:10248F009A0EEC0CF06D92180E00016A6F5F0EE859
:10249F002EFED76A2FFCD700F06D84100E00016A54
:1024AF006F940EE82EFED76A2FFCD700D06D94A044
:1024BF008A00D012000001636F000163A104D001F4
:1024CF000EB8EC10F004D0010E9FEC10F000D0000D
:1024DF000163A304D0020EB8EC10F004D0020E9FDB
:1024EF00EC10F000D0000163A504D0030EB8EC107F
:1024FF00F004D0030E9FEC10F000D01200000E007D
:10250F0001656F06D0000166519BEC11F00001656B
:10251F002B00016551010D61C063F062C064F0F3DF
:10252F005000016327F4500001642363C0F6FF6479
:10253F00C0F7FF0800F5CF66F000D000016651002C
:10254F0001D8A4E0D71200000E0001636F60C0D95C
:10255F00FF61C0DAFFDF500001626FDD0E00016224
:10256F0017D8A413D0000120EE01F06051D92661D5
:10257F0051DA220001DFB409D01650D8B403D016B7
:10258F0004D8A403D0010E0001636F000163510052
:10259F00D012000001606F16D08CC1D9FF8DC1DA47
:1025AF00FF0001F7510DD08EC1D9FF8FC1DAFF00A7
:1025BF0001F85106D090C1D9FF91C1DAFF0001F99E
:1025CF0051DF120CD000016051010AD8B4E5D703D6
:1025DF000AD8B4E9D7010AD8B4EDD700D012000059
:1025EF000E01019E6F000E01019F6F000E05010885
:1025FF006F1E0E356E010E5BEC11F0000E2D6E0886
:10260F000E2E6E050E2F6E010E306E010EA0EC1AFF
:10261F00F02DC0A0F12EC0A1F1170E19EC0FF0BED6
:10262F00EC0EF02DC0A4F12EC0A5F11200FE0EF697
:10263F006E170EF76E0900030EF55E0900000EF51A
:10264F005AD8A011D08B0E01018E6F0F0E01018F82
:10265F006F8EC18CF18FC18DF1010E0001F76F02EA
:10266F000E0001F86F00D0010EB8EC10F0020EB89A
:10267F00EC10F0030EB8EC10F01200000E00EC1B83
:10268F00F01EEC13F07BEC28F0A9EC25F0D1EC1048
:10269F00F000D0DBEC11F0200E186001D0FAD76DEE
:1026AF00A208D007EC17F00009D8B4F3D73FEC120B
:1026BF00F0F0D70001E351D8A4ECD701D0EAD7034B
:1026CF00EC27F0E7D70CEF0CF0000E2E6E010E2D5D
:1026DF006ED0EC0EF01F6E1F50D8B403D0000E1F3B
:1026EF006E00D0000E2E6E050E2D6ED0EC0EF01576
:1026FF006E060E156403D0040E156E00D0000E2E5C
:10270F006E060E2D6ED0EC0EF01D6E030E1D6403C3
:10271F00D0000E1D6E00D01200000E0001616F017F
:10272F000E606FE4EC0EF01F6E1F50D8B403D00094
:10273F000E1F6E00D0000E0001616F050E606FE47A
:10274F00EC0EF0156E060E156403D0040E156E0018
:10275F00D0000E0001616F060E606FE4EC0EF01DED
:10276F006E030E1D6403D0000E1D6E00D01200000C
:10277F000E0001676F06D0000166519BEC11F0004F
:10278F0001672B00016751010D61C064F062C065E4
:10279F00F0F35000016427F4500001652364C0F684
:1027AF00FF65C0F7FF0800F5CF66F000D0000163AA
:1027BF00510001675DD8B007D0000166510001D804
:1027CF00B402D0D9D700D012000001636F63C0AB41
:1027DF00F10001635198EC1CF00001636F0001637D
:1027EF00511DEC12F00001636FFE0EF66E170EF71F
:1027FF006E0900030EF55E0900000EF55AD8B00FF2
:10280F00D00101AF2B0101AF51800A7C0FD8A0047A
:10281F00D0000E0101AF6F03D00001639300D00011
:10282F0001635100D01200020E1918D8A403D08FE3
:10283F00EC22F029D0000E196E0001E151D8A41F2F
:10284F00D020EE01F01350D9261450DA22080EDFF3
:10285F006E20EE02F01350D9261450DA22200EDE2D
:10286F006E040EDD6E13C0D9FF14C0DAFF0C0EDF3D
:10287F006E13C0D9FF14C0DAFF000EDB8E04D00038
:10288F000E0001E16F00D0120070C076F071C077BA
:10289F00F06EC074F06FC075F01CD076C0F6FF7785
:1028AF00C0F7FFF86A74C0D9FF75C0DAFF070EF7DB
:1028BF006403D00800F55005D0F6CFE9FFF7CFEA53
:1028CF00FFEF50DF6E0001764B772B0001744B75D5
:1028DF002B00D000017207D8A0730700017229DD09
:1028EF00E100017329D8A4D9D712000001616F212B
:1028FF00D00001F751FF0A0001606F8CC1D9FF8D25
:10290F00C1DAFF13D00001F851FF0A0001606F8E8A
:10291F00C1D9FF8FC1DAFF09D00001F951FF0A00B9
:10292F0001606F90C1D9FF91C1DAFF00016051DFE3
:10293F00160CD000016151010AD8B4DAD7030AD8B6
:10294F00B4E1D7010AD8B4E8D700D012000600EAE4
:10295F00CF4EF0E1CF4FF0E2CF50F0D9CF51F0DAB8
:10296F00CF52F0F3CF53F0F4CF54F0F6CF55F0F73A
:10297F00CF56F0F8CF57F0F5CF58F063EC24F0585E
:10298F00C0F5FF57C0F8FF56C0F7FF55C0F6FF540C
:10299F00C0F4FF53C0F3FF52C0DAFF51C0D9FF504C
:1029AF00C0E2FF4FC0E1FF4EC0EAFF4DC0E9FF4C50
:1029BF00C0FBFF4BC0FAFF110060C066F061C0673B
:1029CF00F01ED066C0F6FF67C0F7FFF86A070EF774
:1029DF006403D00800F55005D0F6CFE9FFF7CFEA32
:1029EF00FFEF5000016219D8A406D066C060F067EF
:1029FF00C061F017D004D00001664B672B00D000E8
:102A0F00016407D8A0650700016429DBE1000165B7
:102A1F0029D8A4D7D7000E0001606F000E00016106
:102A2F006F00D012000DD035D0ABEC0EF032D0AF1E
:102A3F00EC0EF02FD0F7EC12F02CD0C2EC23F029D3
:102A4F00D039C03FF03AC040F04050000AD8B4042B
:102A5F00D07F0AD8B41BD01DD03F50010AD8B4EA9A
:102A6F00D7030AD8B416D0010AD8B4E7D7060AD8C4
:102A7F00B410D0770AD8B40DD0010AD8B40AD00751
:102A8F000AD8B4D5D7010AD8B4CFD703D03F50FF57
:102A9F000A00D01200000E2E6E020E2D6ED0EC0E1C
:102AAF00F0216E010E216403D0000E216E00D000C4
:102ABF000E2E6E040E2D6ED0EC0EF01E6E050E1E39
:102ACF006403D0000E1E6E00D0000E2E6E030E2D6E
:102ADF006ED0EC0EF01B6E040E1B6403D0000E1BA9
:102AEF006E00D0000E2E6E080E2D6ED0EC0EF02262
:102AFF006E020E226403D0000E226E00D0EEEC0E9A
:102B0F00F06CEC13F01200000E0001636F0001EA8D
:102B1F0051D8B42ED060C0D9FF61C0DAFFDF5000AA
:102B2F0001626FDD0E00016217D8A422D0000120D0
:102B3F00EE01F06051D9266151DA22DF50000162B7
:102B4F006F070E00016217D8A413D0030E1F18D8F9
:102B5F00B40FD00101A851D8B408D0040E2118D851
:102B6F00B407D0050E2118D8B403D0010E000163AD
:102B7F006F0001635100D01200000E0001616F025F
:102B8F000E606FE4EC0EF0216E010E216403D00095
:102B9F000E216E00D0000E0001616F040E606FE415
:102BAF00EC0EF01E6E050E1E6403D0000E1E6E009E
:102BBF00D0000E0001616F030E606FE4EC0EF01B8E
:102BCF006E040E1B6403D0000E1B6E00D0000E00AF
:102BDF0001616F080E606FE4EC0EF0226E020E22A0
:102BEF006403D0000E226E00D00AEC0FF094EC13A9
:102BFF00F0120002EE00F0FE0EEE6AE806FDE101B3
:102C0F00EE93F06B0EEE6AE806FDE100EEDBF01CD2
:102C1F000EEE6AE806FDE100EE01F02C0EEE6AE81A
:102C2F0006FDE19F0EF66E2E0EF76E000EF86E018A
:102C3F00EE00F010EE93F00900F5CFEEFFE550E156
:102C4F0050FAE14F0EF66E1D0EF76E000EF86E0085
:102C5F00EEF7F010EE07F00900F5CFEEFFE550E1CB
:102C6F0050FAE1000EF86E000145EF13F000016B12
:102C7F006F29D0010E0001EA6F34D0000E0001EA77
:102C8F006F000E0001F26F2DD0000169510001D8C5
:102C9F00B428D0A9EC0FF00009D8B423D0010E014D
:102CAF0001A81B1FD068C06AF0220E00016A17D856
:102CBF00B418D0A9EC0FF00009D8B413D0870E00C8
:102CCF00016B6F0FD000016B51270AD8B4EBD71EE1
:102CDF000AD8B4DAD7A90AD8B4CCD7010AD8B4CD58
:102CEF00D700D000016B5100D01200000E236E00F0
:102CFF000E176E000E0001E46F000E0001E56F006D
:102D0F000E0001E16F000E196E09C0D9FF0AC0DA7B
:102D1F00FF7F0EDF16040E091A09C0D9FF0AC0DAA9
:102D2F00FF7F0EDF16040E091A13C0D9FF14C0DA85
:102D3F00FF7F0EDF16000E276E000E296E000E2885
:102D4F006E000E046E000E066E000E056EB4EC1EC5
:102D5F00F0000E3A6E030E396E000E3B6E000E3C05
:102D6F006E000E3E6E000E3D6E1AEC15F0F0EC206C
:102D7F00F0120033D062C0D9FF63C0DAFF60C0E148
:102D8F00FF61C0E2FFDE50E618D8B420D062C0D990
:102D9F00FF63C0DAFFDF500001666F676B000166EB
:102DAF001F671F664B672B60C0D9FF61C0DAFFDF5B
:102DBF00500001686F000168510001662500016035
:102DCF006F000E000167210001616F18D0000160D4
:102DDF004B612B0001624B632B00D000016407D8BD
:102DEF00A0650700016429C6E100016529D8A4C2C6
:102DFF00D7000E0001616F000E606F00D01200FE51
:102E0F000EF66E170EF76E0900030EF55E09000041
:102E1F000EF55AD8A007D0010E0001F46F070E006F
:102E2F0001FD6F00D0FE0EF66E170EF76E0900044F
:102E3F000EF55E0900000EF55AD8A004D0F30E016E
:102E4F0001926F00D0F4C092FF000E966E010E003B
:102E5F0001626F8350FF0A010192150009D8A40D7A
:102E6F00D08150FF0A0001606F3F0E00016017D83C
:102E7F00A404D0000E0001626F00D062C061F03F69
:102E8F000E926EFDC096FF0001615100D01200003E
:102E9F00830F830F830F830F830F830F810F810F97
:102EAF00810F810F810F810F810F810F810F810F93
:102EBF00810F810F830F830F830F830F830F830F77
:102ECF00920F920F920F920F920F920F960F960FE3
:102EDF00960F960F960F920F920F920F920F920FCF
:102EEF0010204080040820100201040880402010A8
:102EFF000804201008040102010204081020804079
:102F0F00201002010102040810200102020408101F
:102F1F002001020404020120100804028C0F8C0F00
:102F2F008B0FFC326E000E336E040E346E2D502E4E
:102F3F006E2F6AD8902E362F363250306E316AD8B7
:102F4F009030363136D890303631362E5030262FDD
:102F5F00503122D89030363136D890303631363025
:102F6F005033263150342233C0D9FF34C0DAFFDF5B
:102F7F009E2D50D8A407D03250020DDB0EF324D96A
:102F8F006E000E06D03250020D090EF324D96E00DA
:102F9F000EF420DA6E33C0DEFF34C0DDFF00D03315
:102FAF00C0D9FF34C0DAFFDF9C20EE04F03350D9D4
:102FBF00263450DA22DF8C1200B00E2D6E010E2E49
:102FCF006E000E306E0E0E2F6E000E326E240E310E
:102FDF006E88EC10F0000E0001E96FE00E2D6E010F
:102FEF000E2E6E000E306E000E2F6E000E326E081B
:102FFF000E316E88EC10F0E80E2D6E010E2E6E0065
:10300F000E306E000E2F6E000E326E020E316E8875
:10301F00EC10F0EA0E2D6E010E2E6E000E306E0EBD
:10302F000E2F6E000E326E060E316E88EC10F00011
:10303F000E0001EF6FEFC0ECF0000E0001EE6FEE2F
:10304F00C0EDF0EDC0EBF0020E1A6E52EC15F0125F
:10305F0000000E0001E46F000E0001E56F020E1973
:10306F0018D8A41DD020EE01F01350D9261450DA31
:10307F0022080EDF6E20EE02F01350D9261450DA1C
:10308F0022280EDE6E040EDD6E13C0D9FF14C0DAD7
:10309F00FF480EDF6E13C0D9FF14C0DAFF23D0280C
:1030AF00500401265D295004012759D8B005D026B8
:1030BF00C428F027C429F000D045EC1EF020EE0202
:1030CF00F00950D9260A50DA22280EDE6E040EDDE2
:1030DF006E09C0D9FF0AC0DAFF480EDF6E09C0D9EA
:1030EF00FF0AC0DAFF000EDB8E00D0120000017065
:1030FF006F70C060F00001616B000E0001636F0C18
:10310F000E626FD0EC18F0000160510001716F0179
:10311F0001ABA13BD0060E0001716537D0070E0041
:10312F0001715F000E0001636F0C0E626F70C06063
:10313F00F00001616B30EC1CF060C068F061C06999
:10314F00F0000E00016B6F050E6A6F05EC11F05B5E
:10315F000E00016E6F760E00016F6F000168510057
:10316F00016E270001695100016F230001715101A8
:10317F000DF35000016E27F45000016F236EC0F65F
:10318F00FF6FC0F7FF0800F55002D0000E00D012FD
:10319F0000000E0001656F000161AF09D0000160F2
:1031AF006D611FD8B0612B010E0001656F00D0005B
:1031BF000163AF06D00001626D631FD8B0632B00AF
:1031CF00D00001625100016311D8B42BD0010E0061
:1031DF0001646F07D00001D8906237633700016434
:1031EF002B00D0000163BF02D0F5D700D0000162E1
:1031FF00510001605D0001635100016159D8A009C0
:10320F00D0000162510001605F0001635100016154
:10321F005B00D00001D890633362330001642FE666
:10322F00D700D0000165510001D8B406D00001606D
:10323F006D611FD8B0612B00D060C060F061C061BC
:10324F00F000D01200000E0401286F000E040129B7
:10325F006F3ED0278E03D00401288100D00001E2F9
:10326F0005D8A441D0040128833ED0278E3CD02717
:10327F008E040124BF0BD0040124510F0B2D6E2D92
:10328F0050020DDB0EF324D96E000E0AD004012478
:10329F00510F0B2D6E2D50020D090EF324D96E0018
:1032AF000EF420DA6EDECF2EF0DDCF2FF000D02E11
:1032BF00C0D9FF2FC0DAFFDFAE16D02EC0D9FF2F37
:1032CF00C0DAFFDFA410D0010E0401286F0CD00468
:1032DF000120511F0B000AD8B4BCD7010AD8B4C5BE
:1032EF00D7030AD8B4C4D727AE08D0280E246E044B
:1032FF000E256E2780020E286E00D01200B00E0031
:10330F0001606F010E0001616F000E0001636F0E0F
:10331F000E626F000E0001656F240E646FEAEC10F1
:10332F00F0000E0001E96FE00E0001606F010E006A
:10333F0001616F000E0001636F000E626F000E00DF
:10334F0001656F080E646FEAEC10F0E80E00016083
:10335F006F010E0001616F000E0001636F000E62BE
:10336F006F000E0001656F020E646FEAEC10F0EA59
:10337F000E0001606F010E0001616F000E0001630E
:10338F006F0E0E626F000E0001656F060E646FEA1E
:10339F00EC10F0000E0001EF6FEFC0ECF0000E002C
:1033AF0001EE6FEEC0EDF0EDC0EBF0020E1A6EC441
:1033BF00EC15F01200366E51D0000EBD6E000EBA35
:1033CF006E0F0EC16EFE0EF66E170EF76E0900032E
:1033DF000EF55E0900000EF55AD8A019D0000EC2E6
:1033EF006E0E0EC16E9E0EC06EFE0EF66E170EF7AF
:1033FF006E0900030EF5180900F510D8A402D0FECF
:10340F000E01D0F30E0001FA6F070E0001FB6F00E3
:10341F000E896E3F0E926E000E8A6E9368F19E00BB
:10342F000E8B6E380E946E000E8C6EFAC095FF8464
:10343F008E000E8D6EFBC096FFE4EC17F019D013C3
:10344F000ED36E16D0600ED36E100E356E940EE83E
:10345F002EFED7352EFCD700D00BD03650000AD811
:10346F00B4ABD7010AD8B4EBD7030AD8B4EBD70063
:10347F00D012000001736FC10E0001706F7D0E003E
:10348F0001716F1EC072F0000E0001746F000174A5
:10349F0051800A790FD8B048D001D046D0000174BE
:1034AF00510001686F696B68BF6907000E00016BFF
:1034BF006F010E6A6F05EC11F070C06EF071C06F86
:1034CF00F00001685100016E270001695100016F82
:1034DF00236EC0F6FF6FC0F7FF0800F550000173B1
:1034EF0019D8A41FD000017251070DC10E00016E33
:1034FF006F7D0E00016F6FF35000016E27F45000C7
:10350F00016F2300017451010DF35000016E27F478
:10351F005000016F236EC0F6FF6FC0F7FF0800F574
:10352F005006D00001742BB2D70001735100D01296
:10353F0000316E2D50D8B407D03150020D090EF363
:10354F0024D96E000E06D03150020DDB0EF324D9B4
:10355F006E000EF420DA6EDECF32F0DDCF33F000E6
:10356F00D032503310D8A405D0000E2D6E000E2E81
:10357F006E3ED020EE02F03250D9263350DA222E92
:10358F00C0DEFF2FC0DDFF20EE01F03250D9263311
:10359F0050DA2230C0DFFF32C0D9FF33C0DAFF402C
:1035AF000EDF1632C0D9FF33C0DAFF000EDB8632D2
:1035BF00C0D9FF33C0DAFF000EDB8E2D50D8B40711
:1035CF00D03150020D090EF324D96E000E06D03102
:1035DF0050020DDB0EF324D96E000EF420DA6E04C8
:1035EF000EDF1A00D032C02DF033C02EF000D012F3
:1035FF00000001696F52D0000EBD6E000EBA6E0F43
:10360F000EC16EFE0EF66E170EF76E0900030EF565
:10361F005E0900000EF55AD8A019D0000EC26E0E2A
:10362F000EC16E9E0EC06EFE0EF66E170EF76E0971
:10363F0000030EF5180900F510D8A402D0FE0E01F4
:10364F00D0F30E0001FA6F070E0001FB6F000E8919
:10365F006E3F0E926E000E8A6E9368F19E000E8B77
:10366F006E380E946E000E8C6EFAC095FF848E002D
:10367F000E8D6EFBC096FF86EC19F01BD0130ED388
:10368F006E18D0600ED36E100E0001686F940EE8A6
:10369F002EFED7682FFCD700D00CD0000169510047
:1036AF000AD8B4A9D7010AD8B4E9D7030AD8B4E91C
:1036BF00D700D0120009C0D9FF0AC0DAFF000EDF11
:1036CF00BC010E2E6E040E091A080E1818D8A40C81
:1036DF00D0040122517F0B6E6E6E50D8B402D01001
:1036EF000E01D0040E186E00D01904D8A42FD020CC
:1036FF00EE02F00950D9260A50DA22280EDE6E04A7
:10370F000EDD6E45EC1EF0020E2318D8A40DD00965
:10371F00C0D9FF0AC0DAFF040E16D009C0D9FF0ABC
:10372F00C0DAFF000EDB8E2BD02E50D8A407D009A5
:10373F00C0D9FF0AC0DAFF480E06D0EFD709C0D9AB
:10374F00FF0AC0DAFF080EDF6EE8D719D004AE14F7
:10375F00D007500810D8B40ED020EE07F001D80AC9
:10376F00D00500FA6EDE50FD6EDE50FE6EF850FF93
:10377F006EFA501200049E00D0000E196E00D01287
:10378F00000001E651D8A463D0010E0001E66F00DE
:10379F0001E751D8A45CD0010E0001E76F020E19AA
:1037AF0018D8A415D020EE01F00950D9260A50DA06
:1037BF0022000EDF6E09C0D9FF0AC0DAFF480EDF04
:1037CF006E09C0D9FF0AC0DAFF000EDB8E40D01998
:1037DF0004D8A43DD0000E0001E16F20EE01F011DE
:1037EF0050D9261250DA22080EDF6E20EE02F011A9
:1037FF0050D9261250DA22200EDE6E040EDD6E1125
:10380F00C0D9FF12C0DAFF040EDF6E11C0D9FF124C
:10381F00C0DAFF000EDB8E010E0001E16F20EE011A
:10382F00F01350D9261450DA22080EDF6E20EE0264
:10383F00F01350D9261450DA22200EDE6E040EDD5E
:10384F006E13C0D9FF14C0DAFF800EDF6E00D012E6
:10385F0000000E0001656F000163AF09D000016227
:10386F006D631FD8B0632B010E0001656F00D00090
:10387F000161AF09D00001606D611FD8B0612B01EC
:10388F000E0001651B00D0000E0001676F000E6671
:10389F006F0001625100016311D8B431D0010E00E5
:1038AF0001646F07D00001D890623763370001645D
:1038BF002B00D0000163BF02D0F5D700D00001D894
:1038CF009066376737000162510001605D00016348
:1038DF005100016159D8A00BD00001625100016065
:1038EF005F000163510001615B0001668100D00040
:1038FF0001D890633362330001642FE0D700D0000A
:10390F000165510001D8B406D00001666D671FD85C
:10391F00B0672B00D066C060F067C061F000D012B6
:10392F00000001626F030E1F18D8A43AD05DD03883
:10393F00D000D015C060F0010E0001616F00016072
:10394F002B03D00001D89061370001602FFAD70008
:10395F00016151FF0A0001621715C060F0EAC061F2
:10396F00F00001602B03D00001D890613700016097
:10397F002FFAD711D000D015C060F0FD0E000160F6
:10398F0027EAC061F00001602B03D00001D89061DD
:10399F00370001602FFAD700016151000162131443
:1039AF00D01550000AD8B4C5D7010AD8B4C2D7036E
:1039BF000AD8B4BFD7010AD8B4DED7070AD8B4DB08
:1039CF00D7010AD8B4D8D700D0020E2218D8A40C29
:1039DF00D00001F2A303D00001628100D00001F2F8
:1039EF00AB03D00001628500D00001625100D012FC
:1039FF00002D0E0001E86F2CC047F0FD0E4716D8C2
:103A0F00A457D02CC047F0D89047323F0E471647E7
:103A1F0050040D000EF324116E040EF420126E11DB
:103A2F00C013F012C014F0040E131A11C0D9FF12F4
:103A3F00C0DAFFDF30E8320F0B0D0AD8A436D00002
:103A4F000E496E070E496401D023D020EE02F0110B
:103A5F0050D9261250DA22DECF47F0DDCF48F0479B
:103A6F00C0D9FF48C0DAFF4950010D200EF324E101
:103A7F006E040EF420E26EDFCFE7FF20EE02F011AE
:103A8F0050D9261250DA22DE2A000EDD22492AD919
:103A9F00D720EE02F01150D9261250DA22200EDE76
:103AAF006E040EDD6E7DEC16F00BD01BEC14F008DF
:103ABF00D02C50FD0B040AD8A403D062EC1BF000ED
:103ACF00D01200278E710E2D6E0F0E2E6E000E303F
:103ADF006E000E2F6E000E326E010E316E88EC10DE
:103AEF00F0000E2D6E040E2E6E000E306E000E2F97
:103AFF006E000E326E200E316E88EC10F06D8C0061
:103B0F000E416E010E416401D016D04150010D0DD2
:103B1F000EF324D96E000EF420DA6E000EDF6E4124
:103B2F0050010D0F0EF324D96E000EF420DA6E0043
:103B3F000EDF6E412AE6D72B0E2D6E000E2E6E0075
:103B4F000E306E000E2F6E000E326E010E316E882B
:103B5F00EC10F06D9C080E096E040E0A6E000E112B
:103B6F006E040E126E11C013F012C014F022C42A8C
:103B7F00F02A50D8A402D0100E0FD0000E3A6E01CA
:103B8F000E396E2A0E3B6E000E3C6E000E3E6E011D
:103B9F000E3D6E1AEC15F0200E186E00D0120002BA
:103BAF000E0001826F00018251800A780FD8B06237
:103BBF00D001D060D0000182510001686F696B683D
:103BCF00BF6907000E00016B6F010E6A6F05EC11E4
:103BDF00F00001685100017B25D96E000169510089
:103BEF00017C21DA6EDF500001816F000181517E6F
:103BFF00EC18F00001836F000183510001D8A40776
:103C0F00D00001815103EC20F00001836F00D07FC1
:103C1F00C068F0020E00017D250001606F000E00EC
:103C2F00017E210001616F83C062F00001636B00B0
:103C3F000E0001656F060E646FE4EC14F000016076
:103C4F005100016111D8A402D0010E01D0000E0065
:103C5F0001696F000183513EEC16F00001836F0084
:103C6F0001835100018019D8A402D0010E05D000A4
:103C7F0001822B98D7000E00D01200080E2D6E294E
:103C8F005011E1080E285CD8B00DD028C02DF023BC
:103C9F0050D8A402D0010E04D02304D8A403D0021C
:103CAF000E236E00D02D50285E000E295A20EE01F3
:103CBF00F00950D9260A50DA222DC0DFFF280E0155
:103CCF0001A26F040E0101A36F27A01ED03FD01CCD
:103CDF00D024C0F6FF25C0F7FFF86AA2C1D9FFA311
:103CEF00C1DAFF070EF76403D00800F55005D0F6D0
:103CFF00CFE9FFF7CFEAFFEF50DF6E244A252A0105
:103D0F0001A24BA32B2D0600D02D50D8B424D0E008
:103D1F00D722D01CD024C0F6FF25C0F7FFF86AA227
:103D2F00C1D9FFA3C1DAFF070EF76403D00800F56E
:103D3F005005D0F6CFE9FFF7CFEAFFEF50DF6E2443
:103D4F004A252A0101A24BA32B2D0600D02D50D8B6
:103D5F00B402D0E0D700D0120004012039E83203BA
:103D6F000B0009D8A467D044D065D042D0278E0865
:103D7F000E186E60D0FDEC21F05DD069EC1DF05A8D
:103D8F00D02A0E246E000E13D0278013D0278E5208
:103D9F00D02AEC19F04FD000D055EC29F04BD004BD
:103DAF00012451010D2B0EF324246E000EF4202557
:103DBF006EEBD7010E286EEAD7278E04012451012E
:103DCF000D2B0EF324D96E000EF420DA6E22C4DF11
:103DDF00FF31D0000E3A6E020E396E000E3B6E00B0
:103DEF000E3C6E000E3E6E000E3D6E1AEC15F0226C
:103DFF00D004012151000AD8B4CBD7010AD8B4CCD2
:103E0F00D7020AD8B4C9D7060AD8B4B0D7030AD88C
:103E1F00B4B1D7010AD8B4DDD70F0AD8B4B1D701DE
:103E2F000AD8B4ABD7030AD8B4BAD7010AD8B4C4E6
:103E3F00D7070A00D012000001646F000160510023
:103E4F0001D8B408D000016451020D090EF324D932
:103E5F006E000E07D000016451020DDB0EF324D962
:103E6F006E000EF420DA6EDECF65F0DDCF66F00067
:103E7F00D00001655100016611D8A407D0000E00D3
:103E8F0001606F000E0001616F44D0000120EE024F
:103E9F00F06551D9266651DA2261C0DEFF62C0DDBE
:103EAF00FF000120EE01F06551D9266651DA226339
:103EBF00C0DFFF65C0D9FF66C0DAFF400EDF1665B1
:103ECF00C0D9FF66C0DAFF000EDB8665C0D9FF667A
:103EDF00C0DAFF000EDB8E000160510001D8B4087C
:103EEF00D000016451020D090EF324D96E000E07A4
:103EFF00D000016451020DDB0EF324D96E000EF4D5
:103F0F0020DA6E040EDF1A00D065C060F066C06163
:103F1F00F000D01200000E00016A6F000E00016B5E
:103F2F006F000E00016D6F070E00016D6501D0115E
:103F3F00D000016D51010DF00EF324D96E010EF476
:103F4F0020DA6E010EDF6402D000016A2B00016DD2
:103F5F002BEAD7000E00016D6F0B0E00016D65018E
:103F6F00D011D000016D51010DD40EF324D96E0183
:103F7F000EF420DA6E010EDF6402D000016B2B000D
:103F8F00016D2BEAD7000E00016C6F010E00016A64
:103F9F006508D0010E00016B6504D0010E00016CA5
:103FAF006F00D06CC069F0F00E0001606F010E0061
:103FBF0001616F000E0001636F000E626F000E0053
:103FCF0001656F080E646FEAEC10F0D40E0001600B
:103FDF006F010E0001616F000E0001636F000E6232
:103FEF006F000E0001656F0C0E646FEAEC10F000AD
:103FFF0001695100D012000001776F000177517EE7
:10400F00EC18F000017A6F77C060F00001616B006F
:10401F000E0001636F0C0E626F30EC1CF00001603C
:10402F00510001786F77C060F00001616B000E00E6
:10403F0001636F0C0E626FD0EC18F000016051003D
:10404F0001796F00017A510001D8B437D000017A9D
:10405F005144D033D0000178510C0D3B0E00017547
:10406F006F750E09D0000178510C0D9B0E00017574
:10407F006F750E01D019D00001766FF350000175E6
:10408F0027F4500001762300017951010DF3500000
:10409F00017527F4500001762375C0F6FF76C0F73F
:1040AF00FF0800F5CF7AF014D0000178510C0DFB0A
:1040BF000E0001756F750EDFD70BD01650000AD8A2
:1040CF00B4F3D7030AD8B4C6D7070AD8B4CBD7EC02
:1040DF00D700017A5141EC1AF000D0120070C0786D
:1040EF00F071C079F06EC076F06FC077F000017696
:1040FF00510001785D0001775100017959D8B04521
:10410F00D000017251000178250001746F00017316
:10411F0051000179210001756F0001745100017682
:10412F005D0001755100017759D8B02FD000017291
:10413F0051000178270001735100017923000172AA
:10414F005100017627000173510001772300D00041
:10415F00017807D8A0790778C0D9FF79C0DAFF00B6
:10416F00017607D8A0770776C0E1FF77C0E2FFDFBF
:10417F00CFE7FF00017207D8A0730700017251004B
:10418F00017311D8B424D0E3D722D00001725100AB
:10419F00017311D8B41CD078C0D9FF79C0DAFF767B
:1041AF00C0E1FF77C0E2FFDFCFE7FF0001784B7977
:1041BF002B0001764B772B00017207D8A0730700F5
:1041CF0001725100017311D8B402D0E5D700D0129B
:1041DF00006D9827BE3DD004AE10D0020E196E00B0
:1041EF0001E551D8A403D030EC18F000D0000E0038
:1041FF0001E76F000E0001E66F6FD020EE01F013A4
:10420F0050D9261450DA22080EDF6E20EE02F0137A
:10421F0050D9261450DA22200EDE6E040EDD6E13F6
:10422F00C0D9FF14C0DAFF0C0EDF6E13C0D9FF1414
:10423F00C0DAFF000EDB8E09C0D9FF0AC0DAFF0417
:10424F000EDF6E09C0D9FF0AC0DAFF000EDB8E4405
:10425F00D0040120AF15D0010E196E0001E451D822
:10426F00A403D030EC18F000D0000E0001E76F006F
:10427F000E0001E66F1750D8A42FD0C8EC1BF02CFE
:10428F00D0020E196E20EE01F01350D9261450DA19
:10429F0022080EDF6E20EE02F01350D9261450DAEA
:1042AF0022200EDE6E040EDD6E13C0D9FF14C0DAAD
:1042BF00FF040EDF6E13C0D9FF14C0DAFF000EDB50
:1042CF008E000E0001E76F000E0001E66F1750D849
:1042DF00A403D0C8EC1BF000D012000001726F04D1
:1042EF000E2118D8B404D0050E2118D8A423D04F0E
:1042FF000E000172651FD0540E000172611BD0B009
:10430F000E000172250001686F0001696BFF0E69D5
:10431F0023000E00016B6F030E6A6F05EC11F09313
:10432F000E0001682500016E6F7F0E000169215993
:10433F00D05BD000D06EC068F00001696B010E0039
:10434F00016B6F200E6A6F05EC11F0AD0E0001705E
:10435F006F760E0001716F00016851000170270028
:10436F0001695100017123000E0001636F0C0E6291
:10437F006F72C060F00001616B30EC1CF060C068C0
:10438F00F061C069F0000E00016B6F240E6A6F05BB
:10439F00EC11F00001685100017027000169510014
:1043AF00017123000E0001636F0C0E626F72C0600B
:1043BF00F00001616BD0EC18F060C068F061C0696B
:1043CF00F0000E00016B6F030E6A6F05EC11F00029
:1043DF000168510001702500016E6F0001695100E5
:1043EF0001712100016F6F00D01200800E040120B7
:1043FF0019D8A48CD0C00E276E7CD0720E246E7F7D
:10440F000E256E000E296E120E286E80D00401222A
:10441F0051D8A43ED004012251020DAB0EF324F665
:10442F006E760EF420F76E0900F5CF24F00A00F532
:10443F00CF25F0020E24242D6E000E25202E6E2D7A
:10444F00C0F6FF2EC0F7FFF86A070EF76403D00817
:10445F0000F55005D0F6CFE9FFF7CFEAFFEF502870
:10446F006E030E24242D6E000E25202E6E2DC0F609
:10447F00FF2EC0F7FFF86A070EF76403D00800F5A8
:10448F005005D0F6CFE9FFF7CFEAFFEF50296E3E88
:10449F00D0000E276E3BD0030E0401226124D004FE
:1044AF00012251020D9D0EF324F66E760EF420F7C5
:1044BF006E0900F5CF24F00A00F5CF25F024C0F6E1
:1044CF00FF25C0F7FFF86A070EF76403D00800F561
:1044DF005005D0F6CFE9FFF7CFEAFFEF502D6E2D45
:1044EF0050286E296A13D0000E276E10D0000E27A9
:1044FF006E0DD004012351010AD8B47FD7030AD817
:10450F00B485D7010AD8B4C7D7F1D700D01200208D
:10451F00EE01F01150D9261250DA22DF502E6E2EF6
:10452F0050055C000E0658D8B003D005C02EF00021
:10453F00D02E50055E000E065A000E2D6E12D02D95
:10454F0050010D280EF324D96E040EF420DA6E01FB
:10455F00C0E1FF02C0E2FFDFCFE7FF014A022A2DD1
:10456F002A00D02E502D5CD8A0EAD705500610D8BF
:10457F00B42DD020EE01F01350D9261450DA2208B2
:10458F000EDF6E20EE02F01350D9261450DA2228D7
:10459F000EDE6E040EDD6E11C0D9FF12C0DAFFDF22
:1045AF00BC0DD013C0D9FF14C0DAFF480E0CD013C6
:1045BF00C0D9FF14C0DAFF000EDB8E3FD013C0D975
:1045CF00FF14C0DAFF080EDF6EF2D737D020EE01EE
:1045DF00F01350D9261450DA22080EDF6E20EE02A7
:1045EF00F01350D9261450DA22200EDE6E040EDDA1
:1045FF006E13C0D9FF14C0DAFF040EDF6E13C0D9DB
:10460F00FF14C0DAFF000EDB8E07500810D8B40E6F
:10461F00D020EE07F001D80AD00500FA6EDE50FD6B
:10462F006EDE50FE6EF850FF6EFA501200049E17A9
:10463F0050D8A403D0C8EC1BF000D01200A09A00F1
:10464F000E6A6E000E686E000E706E710E2D6E0F7C
:10465F000E2E6E000E306E000E2F6E000E326E019B
:10466F000E316E88EC10F0160E6F6E9F0E6B6E7B18
:10467F000E696E000E356E0ED010D03550040D0041
:10468F000EF324D96E040EF420DA6EDE6ADE6ADED3
:10469F006ADD6A352A070E3564F0D76D8C000E6E11
:1046AF006E6D986D9C0AD06896000E276E000E04F2
:1046BF006E000E066E000E056E00D068B6F4D701C0
:1046CF000E0001E66F010E0001E76F000E0001E41E
:1046DF006F000E0001E56F000E0001E36F000E3555
:1046EF006E010E356401D02ED03550020D090EF338
:1046FF0024D96E000EF420DA6E000EDE6E000EDD91
:10470F006E3550020DDB0EF324D96E000EF420DA55
:10471F006E000EDE6E000EDD6E3550010D0D0EF3C8
:10472F0024D96E000EF420DA6E000EDF6E355001C4
:10473F000D0F0EF324D96E000EF420DA6E000EDF8B
:10474F006E352ACED7080E096E040E0A6E160E703D
:10475F006E040E0401036F200E026F080E04010198
:10476F006F040E0401006F0401008F000E2A6E000B
:10477F000E186E1200040120511F0BE806D8A49AE0
:10478F00D001D098D004012451D8A494D001D09254
:10479F00D0060E04012119D8B425D02ED023D02A4B
:1047AF0004D8A42AD004012451D8A426D0270E243B
:1047BF006E7E0E256E000E296E090E11D0C00E27CB
:1047CF006E1BD02A04D8A418D004012451D8A414E5
:1047DF00D01F0E246E7D0E256E000E296E400E2802
:1047EF006EEDD70AD004012351210AD8B4D8D703CC
:1047FF000AD8B4E7D7010A00D004012039E8320300
:10480F000BE806D8A457D041D055D03FD053D0FC99
:10481F00EC0EF050D004012451010DF60EF32424B8
:10482F006E000EF420256E000E296E010E286EC14B
:10483F000E1CD0800E276E04012451010DF60EF3CD
:10484F0024D96E000EF420DA6E23C4DFFF33D004B8
:10485F00012451010DF50EF324246E000EF42025D2
:10486F006E000E296E010E286E810E276E23D080EA
:10487F000E276E04012451010DF50EF324D96E009D
:10488F000EF420DA6E22C4DFFF15D004012151018E
:10489F000AD8B410D0030AD8B4BDD7010AD8B4D7F8
:1048AF00D70A0AD8B4B4D7030AD8B4C3D7010AD8E1
:1048BF00B4DED700D012001804D8B46DBA07D000F8
:1048CF000E686E69806988020E186E00D068B46930
:1048DF00A404D0689421EC11F000D06DB28DD06893
:1048EF00B069A007D026EC23F0A08A040E186E68DA
:1048FF009000D068B869A804D0E0EC0FF068980079
:10490F00D068AC20D069AC0FD0000E3A6E730E3960
:10491F006E000E3B6E000E3C6E000E3E6E010E3DA5
:10492F006E1AEC15F000D0689C0001E851D8B40362
:10493F00D00001E80700D00001E851D8A403D0C887
:10494F00EC1BF000D068BA69AA03D0FBEC11F000A1
:10495F00D068B269A210D07F0E3A6E3968000E3B54
:10496F006E000E3C6E000E3E6E010E3D6E1AEC1583
:10497F00F0000E6A6E00D0040E186001D03DD069B1
:10498F00A63BD0000E4A6E030E4A6401D035D068A4
:10499F00A633D06CCF2CF02C30E832E8320F0B1C42
:1049AF006E68962CB407D01C50010D0F0EF324D94E
:1049BF006E000E06D01C50010D0D0EF324D96E00A3
:1049CF000EF420DA6EDF7000D01C50D8A403D00094
:1049DF00EC1DF010D0000E3A6E720E396E2C0E3B9D
:1049EF006E000E3C6E000E3E6E000E3D6E1AEC1504
:1049FF00F001D002D04A2AC7D7A19A1200840E0024
:104A0F0001616F7F0E0001626F86EC12F0BF0E0026
:104A1F0001616F7F0E0001626F86EC12F0FE0EF6E1
:104A2F006E170EF76E0900F5CF60F00A00F5CF6133
:104A3F00F03EEC11F09BEC11F0280E9BEC11F0C541
:104A4F000E0001616F7F0E0001626F86EC12F000A5
:104A5F000E0001616F000E606F3EEC11F09BEC11C8
:104A6F00F0370E9BEC11F0000E0001616F020E602B
:104A7F006F3EEC11F09BEC11F0000E0001616F0026
:104A8F000E606F3EEC11F09BEC11F0280E9BEC11B9
:104A9F00F0F20E0001616F7E0E0001626F86EC1264
:104AAF00F0D60E0001616F7F0E0001626F86EC126F
:104ABF00F089EC0FF0DA0E0001616F7F0E000162DA
:104ACF006F86EC12F029EC0FF0DE0E0001616F7FA4
:104ADF000E0001626F86EC12F059EC0FF0E20E003F
:104AEF0001616F7F0E0001626F86EC12F039EC0FDF
:104AFF00F0E60E0001616F7F0E0001626F86EC120F
:104B0F00F079EC0FF0EA0E0001616F7F0E00016289
:104B1F006F86EC12F049EC0FF0EE0E0001616F7F23
:104B2F000E0001626F86EC12F069EC0FF0F20E00CE
:104B3F0001616F7F0E0001626F86EC12F099EC0F2E
:104B4F00F01200A09A000E6A6E000E686E000E70D2
:104B5F006E710E0001606F0F0E0001616F000E008D
:104B6F0001636F000E626F000E0001656F010E642E
:104B7F006FEAEC10F0160E6F6E9F0E6B6E7B0E6968
:104B8F006E000E0001686F10D013D0000168510441
:104B9F000D000EF324D96E040EF420DA6EDE6ADEF9
:104BAF006ADE6ADD6A0001682B070E00016865ED99
:104BBF00D76D8C000E6E6E6D986D9C0AD068960046
:104BCF000E276E000E046E000E066E000E056E00B0
:104BDF00D068B6F4D7010E0001E66F010E0001E7B1
:104BEF006F000E0001E46F000E0001E56F000E0074
:104BFF0001E36F000E0001686F010E00016865018F
:104C0F00D033D000016851020D090EF324D96E0084
:104C1F000EF420DA6E000EDE6E000EDD6E000168FF
:104C2F0051020DDB0EF324D96E000EF420DA6E0064
:104C3F000EDE6E000EDD6E00016851010D0D0EF3DC
:104C4F0024D96E000EF420DA6E000EDF6E000168BC
:104C5F0051010D0F0EF324D96E000EF420DA6E0001
:104C6F000EDF6E0001682BC8D7080E096E040E0AFE
:104C7F006E160E706E040E0401036F200E026F0885
:104C8F000E0401016F040E0401006F0401008F0078
:104C9F000E2A6E000E186E120000017F6FFE0EF6C8
:104CAF006E170EF76E0900020EF55E0900000EF585
:104CBF005AD8A020D000017F510C0DDB0E00017CD3
:104CCF006F740E00017D6FF35000017C27F45000CC
:104CDF00017D2300017B51010DF35000017C27F46E
:104CEF005000017D237CC0F6FF7DC0F7FF0800F563
:104CFF00CF7EF009D000017F510C0DF35000017BE6
:104D0F002500017E6F00D000017B51010DD40EF301
:104D1F0024D96E010EF420DA6EDF2A00017F5101D3
:104D2F000DF00EF324D96E010EF420DA6EDF2A0097
:104D3F00017E5103EC20F00001806FDF0E00018037
:104D4F00651AD0E80E0001806116D080C07CF0207B
:104D5F000E00017C27010E00017D6F00017C2B03EB
:104D6F00D00001D8907D3700017C2FFAD700017D4C
:104D7F00510001EC133FD0F10E00018019D8A403AC
:104D8F00D00001ED8137D0F20E00018019D8A403B5
:104D9F00D00001ED832FD0EF0E000180651AD0F205
:104DAF000E0001806116D080C07CF0100E00017CD7
:104DBF0027010E00017D6F00017C2B03D00001D86D
:104DCF00907D3700017C2FFAD700017D510101E161
:104DDF001311D01A50800A780FD8B00CD01A500186
:104DEF000DE00EF324D96E010EF420DA6E7EC0DFD3
:104DFF00FF1A2A00D0120000D0A4C1D9F0A5C1DA41
:104E0F00F00001D91FDA1FD94BDA2BC7EC0EF000D7
:104E1F0001D951000160270001DA5100016123001F
:104E2F000161BFEAD70001615107E18D0E000160FA
:104E3F005DD8B002D0E1D700D0C7EC0EF060C0A4AF
:104E4F00F161C0A5F10001DF2BDFC0D9F00001DA5D
:104E5F006BD9BFDA070001D9B17ED001D07CD00168
:104E6F00019E5101019F11D8B413D09EC1D9FF9F4C
:104E7F00C1DAFF0101DFAE04D00001D96BD92B02DB
:104E8F00D00001D96B0001D9510301006F016B06EE
:104E9F00D0000E0301016F000E006F00D003010060
:104EAF005103010111D8A41ED0F9EC2BF0CFC0048F
:104EBF00F3D0C005F30301045103010511D8B41257
:104ECF00D0010E0001606F04C361F005C362F008EA
:104EDF000E0001636F010E23EC1FF060C09EF161A5
:104EEF00C09FF100D00101A0510101A111D8B4134D
:104EFF00D0A0C1D9FFA1C1DAFF0101DFAE04D000FC
:104F0F0001D96BD92B02D00001D96B0001D9510304
:104F1F0001026F036B06D0000E0301036F000E0238
:104F2F006F00D00301025103010311D8A414D00064
:104F3F000E0001606F080E0001616F050E00016227
:104F4F006F010E0001636F010E23EC1FF060C0A014
:104F5F00F161C0A1F100D01200B4D0A5C083F0A6BA
:104F6F00C084F0A7C085F0A8C086F0A9C087F0AABA
:104F7F00C088F0390E0001896F7B0E00018A6F8D9A
:104F8F000E00018B6F7B0E00018C6FE10E00018D07
:104F9F006F7B0E00018E6F81EC36F0A4D0A5C0831D
:104FAF00F0A6C084F0A7C085F0A8C086F0A9C0877E
:104FBF00F0AAC088F0950E0001896F790E00018A62
:104FCF006FE90E00018B6F790E00018C6F3D0E00A3
:104FDF00018D6F7A0E00018E6F81EC36F083D0A5B4
:104FEF00C083F0A6C084F0A7C085F0A8C086F0A942
:104FFF00C087F0AAC088F0ED0E0001896F780E000F
:10500F00018A6F410E00018B6F790E00018C6F4189
:10501F000E00018D6F790E00018E6F81EC36F062FC
:10502F00D0A5C083F0A6C084F0A7C085F0A8C08625
:10503F00F0A9C087F0AAC088F0910E0001896F7A9D
:10504F000E00018A6FE50E00018B6F7A0E00018C46
:10505F006FE50E00018D6F7A0E00018E6F81EC36B9
:10506F00F041D0A5C083F0A6C084F0A7C085F0A8FA
:10507F00C086F0A9C087F0AAC088F0350E0001895C
:10508F006F7C0E00018A6F890E00018B6F7C0E0002
:10509F00018C6F890E00018D6F7C0E00018E6F8168
:1050AF00EC36F020D0A5C084F0A6C085F0A7C0864E
:1050BF00F0A8C087F0A9C088F0AAC089F09DEC2A9B
:1050CF00F011D01F50000AD8B448D7010AD8B466DF
:1050DF00D7030AD8B484D7060AD8B4A2D7010AD8FE
:1050EF00B4C0D7E0D71200FE0EF66E170EF76E099A
:1050FF0000040EF55E0900000EF55AD8A07DD00011
:10510F000E0001626F070E0001626501D02DD00005
:10511F00016251020D400EF324D96E010EF420DA14
:10512F006E00016251020D300EF324E16E010EF498
:10513F0020E26EDECFE6FFDDCFE5FF000162510119
:10514F000D840EF324D96E010EF420DA6E00016285
:10515F0051010D740EF324E16E010EF420E26EDFA7
:10516F00CFE7FF0001622BCED7000E0001636F0B5C
:10517F000E0001636501D02DD000016351020D189F
:10518F000EF324D96E010EF420DA6E000163510282
:10519F000D000EF324E16E010EF420E26EDECFE679
:1051AF00FFDDCFE5FF00016351010D680EF324D938
:1051BF006E010EF420DA6E00016351010D500EF3F3
:1051CF0024E16E010EF420E26EDFCFE7FF000163F2
:1051DF002BCED7FE0EF66E170EF76E0900050EF5E5
:1051EF005E0900000EF55AD8A057D0010E01015AE2
:1051FF006F020E01015B6F50D0FE0EF66E170EF7A9
:10520F006E0900030EF5180900F510D8A445D096C5
:10521F000E01013A6F0F0E01013B6F000E0001608E
:10522F006F070E0001606501D017D00001605101BA
:10523F000D7C0EF324D96E010EF420DA6E0001609E
:10524F0051010D740EF324E16E010EF420E26EDFB6
:10525F00CFE7FF0001602BE4D7000E0001616F0B59
:10526F000E0001616501D018D000016151010D5C84
:10527F000EF324D96E010EF420DA6E000161510194
:10528F000D500EF324E16E010EF420E26EDFCFE736
:10529F00FF0001612BE4D700D0120004012205D8D2
:1052AF00A412D0040120511F0B0009D8A40CD02741
:1052BF008E030E04012119D8A402D0010E01D000D3
:1052CF000E0001E26F00D004012251D8A42DD104A9
:1052DF000120511F0B020AD8A427D1040124510F1A
:1052EF000B0009D8B421D1040124510F0B416E02D8
:1052FF000E41601AD1200E1818D8A416D1278E048B
:10530F000124BF1BD0040124510F0B416E415002E9
:10531F000DDB0EF324D96E000EF420DA6EDECF45CE
:10532F00F0DDCF46F0040124510F0B416E415001C7
:10533F000D0F0EF324D96E000E1AD0040124510F55
:10534F000B416E4150020D090EF324D96E000EF47D
:10535F0020DA6EDECF45F0DDCF46F0040124510F89
:10536F000B416E4150010D0D0EF324D96E000EF45A
:10537F0020DA6EDF50446E00D044B002D045940264
:10538F00D0458400D0040124BF0BD0040124510F59
:10539F000B416E4150020DDB0EF324D96E000E0A45
:1053AF00D0040124510F0B416E4150020D090EF331
:1053BF0024D96E000EF420DA6E45C0DEFF46C0DD44
:1053CF00FF00D0030E04012119D8A42FD045C0D956
:1053DF00FF46C0DAFFDFAE1CD0040124BF0BD004A0
:1053EF000124510F0B416E4150010D0F0EF324D9C3
:1053FF006E000E0AD0040124510F0B416E41500173
:10540F000D0D0EF324D96E000EF420DA6EDF82003C
:10541F00D045C0D9FF46C0DAFF000EDB8445C0D9A6
:10542F00FF46C0DAFF000EDB8E7FD0040E451A4513
:10543F00C0D9FF46C0DAFFDFAE1BD045C0D9FF464B
:10544F00C0DAFF7F0EDF1645C0D9FF46C0DAFF0076
:10545F000EDB8C000E3A6E050E396E45C03BF046E2
:10546F00C03CF0000E3E6E020E3D6E1AEC15F007BA
:10547F00D045C0D9FF46C0DAFF000EDB8C00D00448
:10548F000E451A44B206D045C0D9FF46C0DAFFDF39
:10549F00AE31D0040124BF0BD0040124510F0B41B6
:1054AF006E4150010D0F0EF324D96E000E0AD00479
:1054BF000124510F0B416E4150010D0D0EF324D9F4
:1054CF006E000EF420DA6EDF9200D045C0D9FF4691
:1054DF00C0DAFF3B0EDF16000E3A6E050E396E4531
:1054EF00C03BF046C03CF0000E3E6E020E3D6E1A01
:1054FF00EC15F007D045C0D9FF46C0DAFF3B0EDFF1
:10550F001600D0040124510F0B416E4150010D7054
:10551F000EF324426E0F0EF420436E42C0D9FF43A8
:10552F00C0DAFFFE0EDF1600D0120084C0D9FF854F
:10553F00C0DAFFDF50DD0B0001906F88C0D9FF8903
:10554F00C0DAFF90C0DFFF000E00018B6F0001205B
:10555F00EE01F08451D9268551DA220001DFB429FA
:10556F00D1020E00018F6F020E00018E6F00018EAF
:10557F0051800A780FD8B01DD101D01BD100018EF8
:10558F00510001686F696B68BF6907000E00016BFE
:10559F006F010E6A6F05EC11F00001685100018474
:1055AF0025D96E0001695100018521DA6EDF5000A7
:1055BF00018D6F00018D517EEC18F00001916F008D
:1055CF000191510001D8A407D000018D5103EC20A7
:1055DF00F00001916F00D090C068F0020E000186BC
:1055EF00250001606F000E000187210001616F919E
:1055FF00C062F00001636B000E0001656F060E6460
:10560F006FE4EC14F00001605100016111D8A402A5
:10561F00D0010E01D0000E0001696F000191513EC3
:10562F00EC16F00001916FACD000D0000190830810
:10563F000E00018E6F06D0340E01D0330E00018C98
:10564F006F09D000019151EC0AD8B4F5D7190AD8D7
:10565F00B4F4D700D000018F51010DF35000018831
:10566F0025D96EF45000018921DA6E8CC0DFFF85D9
:10567F00D000D000018F51010DF35000018825D9C2
:10568F006EF45000018921DA6E91C0DFFF00018FA7
:10569F002B1650D8A48AD0080E00018E6F86D084A6
:1056AF00C0D9FF85C0DAFFDF500101AA1100018ABE
:1056BF006F220E00018A17D8B453D00001908300D7
:1056CF00018F51010DF35000018825D96EF4500060
:1056DF00018921DA6E91C0DFFF00018F2B84C0603A
:1056EF00F085C061F086C062F087C063F0000E00E5
:1056FF0001656F080E646FC1EC16F0000160510078
:10570F00016111D8B414D084C07BF085C07CF086C1
:10571F00C07DF087C07EF090C07FF0390E00018011
:10572F006FD7EC1DF00009D8A402D0000E4CD08426
:10573F00C07BF085C07CF086C07DF087C07EF09086
:10574F00C07FF0390E0001806FD7EC1DF00009D833
:10575F00B42CD0000E0101AA6F010E00018B6F2532
:10576F00D000018F51010DF35000018825D96EF43F
:10577F005000018921DA6E91C0DFFF00018F2B15D8
:10578F00D000019151330AD8B474D7070AD8B47135
:10579F00D7020AD8B46ED7010AD8B46BD7DB0AD8B0
:1057AF00B444D7190AD8B441D77AD700018E2BDE6B
:1057BF00D600D000018B510001D8A408D084C0D9E5
:1057CF00FF85C0DAFFDF500101AA6F00D088C0D972
:1057DF00FF89C0DAFF90C0DFFFEDC0EBF0010E00D4
:1057EF00D01200030E0001FC19D8A44FD0BBEC0F50
:1057FF00F00001D66F000E0001D46F13D0350E0BE1
:10580F00D0250E09D0310E07D01E0E05D0340E0351
:10581F00D0370E01D0080E0001D66F020E0001D452
:10582F006F18D00001D651EE0AD8B4F2D7190AD8A2
:10583F00B4F1D70E0AD8B4E2D7030AD8B4E1D70629
:10584F000AD8B4E0D7010AD8B4DFD7030AD8B4DE38
:10585F00D700D005010251D8B40AD00001D65105A6
:10586F00010219D8A404D0000E0501026F0FD17BDD
:10587F00EC11F0D6C002F5D4C000F505010251D8E5
:10588F00A405D1000E0001FC6F01D107EC17F00049
:10589F0009D8B482D0070E0001D86F79D00001D893
:1058AF0051010D740EF324D96E010EF420DA6EDF60
:1058BF0050FF0A0001D16F0001D851020D300EF3D5
:1058CF0024D96E010EF420DA6EDECFD2F0DDCFD305
:1058DF00F0D2C0D9FFD3C0DAFF0001D151DF1600DB
:1058EF000E0001D76F0B0E0001D76501D02DD00030
:1058FF0001D751010D500EF324D96E010EF420DAA9
:10590F006EDF500001D16F0001D751020D000EF371
:10591F0024D96E010EF420DA6EDECFD2F0DDCFD3B4
:10592F00F0D2C0D9FFD3C0DAFFDF500001D115008C
:10593F0009D8A407D0D7C07BF00001D85154EC266A
:10594F00F000D00001D72BCED70001D851010D7434
:10595F000EF324D96E010EF420DA6EDF500001D160
:10596F006F0001D851020D300EF324D96E010EF4E1
:10597F0020DA6EDECFD2F0DDCFD3F0D2C0D9FFD395
:10598F00C0DAFF0001D151DF120001D80700D000AB
:10599F0001D8BF02D083D700D0000E0001C66F051B
:1059AF000E0001C76F0DEC2FF00001FC6F60D010DF
:1059BF000E0001606F050E0001616F000E000163A4
:1059CF006F000E626F000E0001656F060E646FEAC6
:1059DF00EC10F05CD0000E0001D56F050E0001D564
:1059EF006501D00FD00001D551010D020EF324D95E
:1059FF006E050EF420DA6EDF509BEC11F00001D52E
:105A0F002BECD7060EDAEC0EF00501026F030E0039
:105A1F0001606F050E0001616F000E0001636F00E2
:105A2F000E626F000E0001656F050E646FEAEC10D9
:105A3F00F02DD0030E0001FC6F000E0501006F84E6
:105A4F000EDAEC0EF00501026F030E0001606F0518
:105A5F000E0001616F000E0001636F000E626F0098
:105A6F000E0001656F050E646FEAEC10F00FD000A9
:105A7F0001FC51010AD8B40AD0030AD8B498D7014F
:105A8F000AD8B4A8D7070AD8B4D4D700D00001FCDD
:105A9F00510001D8A406D0000E0001CF6F000E05F3
:105AAF00D007D0000E0001CF6F050E0001D06F00A0
:105ABF00D012000001816FA10E0001816193D0818E
:105ACF00C060F00001616B000E0001636F070E6292
:105ADF006F30EC1CF0D890000160370001613793F4
:105AEF000E0001602500017F6F7D0E000161210016
:105AFF0001806F000E0001826F22D00001825101E0
:105B0F000D7FC07AF080C07BF0F35000017A27F44C
:105B1F005000017B237AC0F6FF7BC0F7FF000182A4
:105B2F0051010DF35000017825D96EF45000017921
:105B3F0021DA6E0800F5CFDFFF0001822B00D002C3
:105B4F000E0001826118D000018251010D7FC07AD1
:105B5F00F080C07BF0F35000017A27F45000017BF6
:105B6F00237AC0F6FF7BC0F7FF0800F5500009D875
:105B7F00B402D0C3D700D081C060F00001616B00C8
:105B8F000E0001636F070E626FD0EC18F0960E00D7
:105B9F00016025F66E760E00016121F76E0001821D
:105BAF0051010DF35000017825D96EF450000179A1
:105BBF0021DA6E0800F5CFDFFF0DD0000182510111
:105BCF000DF35000017825D96EF45000017921DAD8
:105BDF006E000EDF6E0001822B00D0020E000182DC
:105BEF0065ECD712D1A00E000181652AD0B70E0047
:105BFF0001816126D078C06EF079C06FF05F0E0022
:105C0F000181250001686F0001696BFF0E69230098
:105C1F000E00016B6F030E6A6F05EC11F0DD0E00C5
:105C2F000168250001706F7C0E0001692100017170
:105C3F006F000E0001736F030E726F4CEC14F0E4E3
:105C4F00D0C70E000181653AD0E20E0001816136A6
:105C5F00D078C06EF079C06FF0700E00017A6FFED1
:105C6F000E00017B6F0001815100017C6F7D6BD8AD
:105C7F009000017C377D3700017A5100017C2700AD
:105C8F00017B5100017D235F0E00017C2500017017
:105C9F006F7D0E00017D210001716F000E000173F9
:105CAF006F020E726F4CEC14F0000120EE02F078D0
:105CBF0051D9267951DA22000EDF6EA6D0E50E00FB
:105CCF0001816592D0F20E000181618ED0000181B9
:105CDF00511A0F0001826F28D000018251030D86E7
:105CEF000EF32400017F6F7E0E1BD0000182510343
:105CFF000D3E0EF32400017F6F7E0E12D000018245
:105D0F0051030D620EF32400017F6F7E0E09D00048
:105D1F00D000018251030DCE0EF32400017F6F7E60
:105D2F000EF4200001806F0ED01D50000AD8B4F081
:105D3F00D7010AD8B4E3D7030AD8B4CED7010AD80B
:105D4F00B4D4D7E6D7000E0001826F020E00018295
:105D5F006501D05AD000018251010D7FC07AF080C9
:105D6F00C07BF0F35000017A27F45000017B237AB7
:105D7F00C0F6FF7BC0F7FF0800F5CF7EF0A9EC0F50
:105D8F00F00009D8A40ED01FD00CD0300E07D0329F
:105D9F000E05D02E0E03D0250E01D0260E00017E4B
:105DAF006F12D000017E51260AD8B4F5D7010AD858
:105DBF00B4F4D7080AD8B4E9D71F0AD8B4E8D7057E
:105DCF000AD8B4E7D700D000018251010DF350007B
:105DDF00017825D96EF45000017921DA6E7EC0DF8B
:105DEF00FF0001822BB2D710D078C060F079C0616C
:105DFF00F0000E0001636F000E626F000E00016570
:105E0F006F030E646FEAEC10F01200000E0001CA6F
:105E1F006F92EC1FF00009D8B40ED094D10CD01AA9
:105E2F0050010DE00EF324D96E010EF420DA6E0E40
:105E3F000EDF6E1A2A00D01A50800A780FD8A0EF02
:105E4F00D70001E951060DB00EF32400016E6F016A
:105E5F000EF42000016F6FE20E0001706F010E0053
:105E6F0001716F000E0001736F060E726F76EC20DA
:105E7F00F0ECC0E0F1EDC0E1F12250D8B40BD0E06E
:105E8F000E0001606F010E0001616F8BEC15F000C9
:105E9F0009D8A40BD0E00E0001606F010E00016164
:105EAF006FABEC12F00009D8B430D00001F2510101
:105EBF0001E0130001F3510101E1130001EFB307FA
:105ECF00D00001ECA304D0020E0001F21B00D000A1
:105EDF0001EFBB07D00001ECAB04D0200E0001F2A4
:105EEF001B00D00001EEB107D00001EDA104D001DD
:105EFF000E0001F31B00D00001EEB307D00001ED3F
:105F0F00A304D0020E0001F31B00D0ECC0EFF0EDA4
:105F1F00C0EEF01B5000080001E925060F0001CC70
:105F2F006F0001CC51800A7A0FD8A003D0FA0E006F
:105F3F0001CC270001CC51050F0001CE6F0001CE1F
:105F4F0051800A7A0FD8A004D0FA0E0001CE270094
:105F5F00D0020E1A6E000E0001CD6F0001CD5180E0
:105F6F000A7A0FD8B057D001D055D00001CC5106C6
:105F7F000DB00E0001C86F010E0001C96FF3500084
:105F8F0001C827F4500001C9230001CD51010DF3C1
:105F9F00500001C825D96EF4500001C921DA6EDF17
:105FAF00500001CB6F0001CE51060DB00EF324004F
:105FBF0001606F010EF4200001616FCBC062F00031
:105FCF0001636B000E0001656F060E646FE4EC1445
:105FDF00F00001605100016111D8B40CD01A5001CA
:105FEF000DE00EF324D96E010EF420DA6ECBC0DF74
:105FFF00FF1A2A00D00001CD2BB0D70CD01A5001B8
:10600F000DE00EF324D96E010EF420DA6E0E0EDFC2
:10601F006E1A2A00D01A50800A780FD8A0EFD7E056
:10602F000E0001606F010E0001616FE80E0001624A
:10603F006F010E0001636F000E0001656F080E64A3
:10604F006FC1EC16F00001605100016111D8B473FB
:10605F00D0E20E0001606F010E0001616FEA0E00C9
:10606F0001626F010E0001636F000E0001656F0684
:10607F000E646FC1EC16F00001605100016111D880
:10608F00A410D00E0E0101E219D8B40BD00101E11A
:10609F0051D8A407D0E0C1C8F0220E0001C817D80C
:1060AF00B41FD00E0E0101E219D8B407D0000E00B4
:1060BF0001F26F000E0001F36F00D0E00E0001AB94
:1060CF006F010E0001AC6FE80E0001AD6F010E0005
:1060DF0001AE6FC6C0AFF0C7C0B0F07AEC33F02896
:1060EF00D00101E951D8B404D00101E151D8B42352
:1060FF00D00101E8A303D00101E0A31DD00101E805
:10610F00AB05D00101E0AB17D001D015D0E00E00E8
:10611F0001AB6F010E0001AC6FE80E0001AD6F0116
:10612F000E0001AE6FC6C0AFF0C7C0B0F07AEC334F
:10613F00F00001CA6F00D0C6C07AF0C7C07BF0EE86
:10614F00EC30F02DD00001E951050F0001CE6F00AA
:10615F0001CE51800A7A0FD8A004D0FA0E0001CEDA
:10616F002700D00001E951060DB00EF32400016E97
:10617F006F010EF42000016F6F0001CE51060DB0BC
:10618F000EF3240001706F010EF4200001716F00F7
:10619F000E0001736F060E726F76EC20F000D000C8
:1061AF0001E92B0001E951800A7A0FD8A003D00032
:1061BF000E0001E96F020E1A6E000E0001EC6F0067
:1061CF000E0001ED6F0001CA5100D01200020E0047
:1061DF0001816F00018151800A780FD8B082D201FE
:1061EF00D080D2000181510001686F696B68BF696F
:1061FF0007000E00016B6F010E6A6F05EC11F000C6
:10620F0001685100017A25D96E0001695100017BA7
:10621F0021DA6EDF500001806F47D246D000018136
:10622F00510001686F696B68BF6907000E00016B51
:10623F006F010E6A6F05EC11F00001685100017AD1
:10624F0025D96E0001695100017B21DA6E680E2A93
:10625F00D0000181510001686F696B68BF69070049
:10626F000E00016B6F010E6A6F05EC11F0000168F3
:10627F005100017A25D96E0001695100017B21DAA5
:10628F006E690E10D000D0000181510001686F6956
:10629F006B68BF6907000E00016B6F010E6A6F0517
:1062AF00EC11F02CD1DF6E1AD2000180518A0AD87E
:1062BF00B4EAD7010AD8B4E7D71B0AD8B4AFD701CD
:1062CF000AD8B4C6D70BD27FD000D00001815100BD
:1062DF0001686F696B68BF6907000E00016B6F0182
:1062EF000E6A6F05EC11F00AD1020E1E18D8B40415
:1062FF00D0050E1E18D8A4F2D17AC0D9FF7BC0DA10
:10630F00FF000EDB84000181510001686F696B682B
:10631F00BF6907000E00016B6F010E6A6F05EC116C
:10632F00F00001685100017A2500016E6F000169CC
:10633F005100017B2100016F6F0001815100016845
:10634F006F696B68BF6907000E00016B6F010E6A02
:10635F006F05EC11F07AC07CF07BC07DF000016816
:10636F005100017C270001695100017D23010E00BE
:10637F00017C250001706F000E00017D210001716D
:10638F006F81C07EF000017F6B7EBF7F0700017EB3
:10639F001F7F1F7E4B7F2B070E00017E2500017292
:1063AF006F000E00017F210001736F76EC20F0006B
:1063BF000120EE07F07A51D9267B51DA22000EDF49
:1063CF006E000181078BD100018051650AD8B48C12
:1063DF00D7EF0AD8B47AD7010AD8B477D77FD14D7F
:1063EF00D0000181510001686F696B68BF690700B8
:1063FF000E00016B6F010E6A6F05EC11F000016862
:10640F005100017A25D96E0001695100017B21DA13
:10641F006E2C0EC5D07AC0D9FF7BC0DAFF030EDF1A
:10642F00125DD1000181510001686F696B68BF690E
:10643F0007000E00016B6F010E6A6F05EC11F00083
:10644F0001685100017A25D96E0001695100017B65
:10645F0021DA6E2A0EA4D0DED700D00001815100C0
:10646F0001686F696B68BF6907000E00016B6F01F0
:10647F000E6A6F05EC11F042D031D1000180518AC4
:10648F000AD8B4EBD7010AD8B4E8D71B0AD8B4A8F6
:10649F00D7010AD8B4C6D722D13ED000D00001818F
:1064AF00510001686F696B68BF6907000E00016BCF
:1064BF006F010E6A6F05EC11F00001685100017A4F
:1064CF0025D96E0001695100017B21DA6E350EB4BA
:1064DF00D07AC0D9FF7BC0DAFF000EDB84FFD0007B
:1064EF00D0000181510001686F696B68BF690700B7
:1064FF000E00016B6F010E6A6F05EC11F000016861
:10650F005100017A25D96E0001695100017B21DA12
:10651F006E2C0EC8D6E3D0000180518A0AD8B4E0A1
:10652F00D7010AD8B4DDD71B0AD8B4B8D7010AD817
:10653F00B4B5D7D4D037D0000181510001686F694D
:10654F006B68BF6907000E00016B6F010E6A6F0564
:10655F00EC11F00001685100017A25D96E00016934
:10656F005100017B21DA6E8A0E1AD054D7000181B7
:10657F00510001686F696B68BF6907000E00016BFE
:10658F006F010E6A6F05EC11F00001685100017A7E
:10659F0025D96E0001695100017B21DA6E8B0EDF68
:1065AF006E39D79CD000018051900AD8B4C4D7015E
:1065BF000AD8B4DCD793D01CD000D0000181510091
:1065CF0001686F696B68BF6907000E00016B6F018F
:1065DF000E6A6F05EC11F00001685100017A25D9A0
:1065EF006E0001695100017B21DA6E350E5BD676A4
:1065FF00D000018051900AD8B4E0D7010AD8B4DD99
:10660F00D76DD01DD000D0000181510001686F6996
:10661F006B68BF6907000E00016B6F010E6A6F0593
:10662F00EC11F00001685100017A25D96E00016963
:10663F005100017B21DA6E2C0EDF6E4AD74FD0004E
:10664F00018051900AD8B4DFD7010AD8B4DCD746FD
:10665F00D022D000D0000181510001686F696B68B2
:10666F00BF6907000E00016B6F010E6A6F05EC1119
:10667F00F00001685100017A25D96E0001695100BF
:10668F00017B21DA6E2C0EDF6E7AC0D9FF7BC0DA68
:10669F00FF000EDB8223D000018051900AD8B4DABC
:1066AF00D7010AD8B4D7D71AD02150000AD8B4FCD2
:1066BF00D5010AD8B488D6030AD8B4DFD6010AD8D0
:1066CF00B42AD7070AD8B46ED7010AD8B491D70322
:1066DF000AD8B4B5D7010AD8B4DED700D0000181EB
:1066EF002B78D51200ABC060F0ACC061F0ADC062CA
:1066FF00F0AEC063F0000E0001656F080E646FC14D
:10670F00EC16F00001605100016111D8A402D00015
:10671F000EEFD2AFC060F0B0C061F0000E000163A9
:10672F006F000E626F000E0001656F080E646FEA56
:10673F00EC10F00001EBA103D00001ED8100D000BF
:10674F0001EBA303D00001ED8300D0000120EE0187
:10675F00F0AB51D926AC51DA220001DFA095D1ABB5
:10676F00C0D9FFACC0DAFFDF500001BA6F020E00D4
:10677F0001BC6F010E0001C46F020E0001BD6F70EE
:10678F00D10001BD510001686F696B68BF690700D7
:10679F000E00016B6F010E6A6F05EC11F0000168BE
:1067AF00510001AB25D96E000169510001AC21DA0E
:1067BF006EDF500001B86F000E00016E6F0001B860
:1067CF005175EC21F06EC0B3F06FC0B4F0000E0045
:1067DF0001BE6F38D10001BE510001686F696B684F
:1067EF00BF6907000E00016B6F010E6A6F05EC1198
:1067FF00F0B3C0B1F0B4C0B2F0000168510001B104
:10680F0027000169510001B223B1C0F6FFB2C0F7F2
:10681F00FF0800F5CFC2F0020E0001AD25000160A8
:10682F006F000E0001AE210001616FB8C062F00071
:10683F0001636B000E0001656F060E646FE4EC14CC
:10684F00F00001605100016111D8A402D0010E01C6
:10685F00D0000E0001C56FBAD0F2D00001C55100B3
:10686F0001D8B4EDD006EC25F08ED0E9D00001C5EB
:10687F00510001D8B4E4D05EEC10F085D0E0D00028
:10688F0001C5510001D8B4DBD0CDEC0FF07CD0D7CF
:10689F00D00001C5510001D8B4D2D01FEC10F07355
:1068AF00D0CED00001C5510001D8B4C9D0F5EC0F3E
:1068BF00F06AD0C5D00001C5510001D8B4C0D0498D
:1068CF00EC10F061D0BCD00001C5510001D8B4B7B5
:1068DF00D00AEC10F058D0B3D00001C5510001D848
:1068EF00B4AED034EC10F04FD0AAD00001C5510097
:1068FF0001D8B4A5D073EC10F046D0A1D00001BAE6
:10690F00819ED00001BA899BD00001BA8398D00034
:10691F0001BA8B95D00001C5510001D8B490D02792
:10692F000E9BEC11F0270E9BEC11F02DD088D000B0
:10693F0001C5510001D8B483D0270E9BEC11F0276D
:10694F000E9BEC11F0270E9BEC11F01DD078D000B0
:10695F0001C5510001D8B473D0000E9BEC11F0F9B2
:10696F000E9BEC11F0380E9BEC11F0030E0DD0675F
:10697F00D00001C5510001D8B462D02C0E9BEC1190
:10698F00F02C0E9BEC11F0040E0001C46F58D0AB2D
:10699F00C0D9FFACC0DAFFDF500001686FC5C06916
:1069AF00F00001C2513EEC16F00001C26F0001BCB5
:1069BF0051010DF3500001AF25D96EF4500001B015
:1069CF0021DA6EC2C0DFFF0001BC2B39D00001C23B
:1069DF0051000AD8B434D03A0AD8B43FD7010AD8F4
:1069EF00B445D7070AD8B44BD7010AD8B451D70347
:1069FF000AD8B457D7010AD8B45DD77F0AD8B46381
:106A0F00D7010AD8B469D7030AD8B46FD7F20AD816
:106A1F00B481D7010AD8B48BD7510AD8B46FD70134
:106A2F000AD8B472D7050AD8B46CD7010AD8B46F94
:106A3F00D7130AD8B49DD70E0AD8B489D7A8D700D0
:106A4F0001BE2B00D00001BE51800A7D0FD8B005CA
:106A5F00D0070E0001BC65BED600D00001BD2B00D3
:106A6F00D00001BD51800A780FD8B007D0040E00B6
:106A7F0001C419D8B402D084D600D0AFC0D9FFB0AA
:106A8F00C0DAFFBAC0DFFF13D1000120EE01F0AB77
:106A9F0051D926AC51DA220001DFA2E0D0ABC0D928
:106AAF00FFACC0DAFFDF500001BB6F020E0001BF69
:106ABF006F010E0001C46F020E0001C06FBBD0004A
:106ACF0001C0510001686F696B68BF6907000E0054
:106ADF00016B6F010E6A6F05EC11F0000168510038
:106AEF0001AB25D96E000169510001AC21DA6EDFCF
:106AFF00500001B96F010E00016E6F0001B95175A1
:106B0F00EC21F06EC0B5F06FC0B6F0000E0001C101
:106B1F006F83D00001C1510001686F696B68BF6955
:106B2F0007000E00016B6F010E6A6F05EC11F0B5D7
:106B3F00C0B1F0B6C0B2F0000168510001B127003A
:106B4F000169510001B223B1C0F6FFB2C0F7FF08CF
:106B5F0000F5CFC3F0020E0001AD250001606F00FC
:106B6F000E0001AE210001616FB9C062F000016338
:106B7F006B000E0001656F060E646FE4EC14F000FD
:106B8F0001605100016111D8A402D0010E01D000A3
:106B9F000E0001B76F2CD03DD00001BB813AD00061
:106BAF0001BB8937D00001BB8334D00001BB8B31CF
:106BBF00D0ABC0D9FFACC0DAFFDF500001686FB7B0
:106BCF00C069F00001C3513EEC16F00001C36F0025
:106BDF0001BF51010DF3500001AF25D96EF45000E4
:106BEF0001B021DA6EC3C0DFFF0001BF2B12D0004E
:106BFF0001C351000AD8B40DD0E00AD8B4CDD701E3
:106C0F000AD8B4D0D7050AD8B4CAD7010AD8B4CD98
:106C1F00D7CFD70001C12B00D00001C151800A7D11
:106C2F000FD8B005D0070E0001BF6573D700D00095
:106C3F0001C02B00D00001C051800A780FD8B007D7
:106C4F00D0040E0001C419D8B402D039D700D0AF88
:106C5F00C0D9FFB0C0DAFFBBC0DFFF29D0ABC06027
:106C6F00F0ACC061F08BEC15F00009D8B40FD0ABCD
:106C7F00C0A5F0ACC0A6F0ADC0A7F0AEC0A8F0AFF5
:106C8F00C0A9F0B0C0AAF0B4EC27F00ED0ABC0840E
:106C9F00F0ACC085F0ADC086F0AEC087F0AFC08855
:106CAF00F0B0C089F09DEC2AF00001C46F00D00055
:106CBF0001C405D8B40AD0030E0001C419D8B40515
:106CCF00D0040E0001C419D8A410D0ADC06EF0AE20
:106CDF00C06FF0ABC070F0ACC071F0000E0001736C
:106CEF006F080E726F76EC20F000D00001C45100D7
:106CFF00D0120083C0D9FF84C0DAFFDF5000019C9F
:106D0F006F020E0001A46F010E0001916F83C0D9B5
:106D1F00FF84C0DAFFDF50DD0B0001966F87C0D90B
:106D2F00FF88C0DAFF96C0DFFF020E0001956FF3F8
:106D3F00D2000195510001686F696B68BF69070048
:106D4F000E00016B6F010E6A6F05EC11F000016808
:106D5F005100018325D96E0001695100018421DAA8
:106D6F006EDF500001A16FA1C060F00001616B00E8
:106D7F000E0001636F0C0E626F30EC1CF0000160AF
:106D8F00510001A06FA1C060F00001616B000E0007
:106D9F0001636F0C0E626FD0EC18F00001605100B0
:106DAF0001976F0001A1517EEC18F00001A36F0055
:106DBF0001A3510001D8B42AD00001A451010DF351
:106DCF005000018725D96EF45000018821DA6EA397
:106DDF00C0DFFF0001A42BF80E0001606F010E0051
:106DEF0001616F000E0001636F000E626F000E00F5
:106DFF0001656F030E646FEAEC10F01AD183C0D9EE
:106E0F00FF84C0DAFFDF500001966F82D2000E00C0
:106E1F0001926F00019C51220B220AD8A410D001BD
:106E2F0001A9A303D000019C930AD085C0D9FF8686
:106E3F00C0DAFF0001DFAA03D000019C9B00D0063F
:106E4F000E0001A06504D0000E0001A26F34D00027
:106E5F00019CA308D00001A0510C0D8BC08FF08CAA
:106E6F00C090F012D000019CAB08D00001A0510CD3
:106E7F000D8DC08FF08EC090F007D00001A0510C87
:106E8F000D89C08FF08AC090F0F35000018F27F466
:106E9F00500001902300019751010DF35000018F15
:106EAF0027F450000190238FC0F6FF90C0F7FF0822
:106EBF0000F5CFA2F000D00001A2510001D8B445D7
:106ECF00D0D00E0001A26505D0E00E0001A2653DF5
:106EDF00D000D0010E0001926F020E0001986F00DA
:106EEF00019851800A780FD8B030D001D02ED00041
:106EFF000198510001686F696B68BF6907000E0048
:106F0F00016B6F010E6A6F05EC11F0000168510003
:106F1F00018525D96E0001695100018621DA6E00C5
:106F2F0001A151DE18D8A40DD00E0E0001A16F01E2
:106F3F000E0001A06F020E0001976F000E0001A25C
:106F4F006F04D00001982BCBD700D00001A25100C5
:106F5F0001D8B40BD09D0E0001786F000E0001799F
:106F6F006F0001A25161EC2DF000D00001A2510081
:106F7F0001D8B405D000019D510001D8A462D00002
:106F8F0001A15103EC20F00001A36F0001A35100F8
:106F9F0001D8B4BED183C0D9FF84C0DAFFDF50005F
:106FAF0001686F020E000185250001606F000E0061
:106FBF000186210001616FA3C062F00001636B00C5
:106FCF000E0001656F060E646FE4EC14F0000160B3
:106FDF005100016111D8A402D0010E01D0000E00A2
:106FEF0001696F0001A3513EEC16F00001A36F0081
:106FFF0001A451010DF35000018725D96EF4500003
:10700F00018821DA6EA3C0DFFF0001A42BF80E0068
:10701F0001606F010E0001616F000E0001636F00D0
:10702F000E626F000E0001656F030E646FEAEC10C5
:10703F00F083C0D9FF84C0DAFFDF500101A96FDEF2
:10704F00D667D1000192510001D8B460D0000E0074
:10705F0001996F48D0000E00019A6F2DD000019A50
:10706F0051010D9D0EF324D96E000EF420DA6E003F
:10707F00019951010DFB0EF324E16E010EF420E294
:10708F006EDE50E618D8A414D0FB0E0001606F011D
:10709F000E0001616F000E0001636F000E626F0042
:1070AF000E0001656F030E646FEAEC10F0020E7CA8
:1070BF00D100019A2B00D000019A51800A7D0FD880
:1070CF00B00ED000019A51010D9D0EF324D96E0020
:1070DF000EF420DA6EDF50D8B402D0C0D700D00043
:1070EF0001992B00D000019951800A7D0FD8B00E65
:1070FF00D000019951010DFB0EF324D96E010EF44E
:10710F0020DA6EDF50D8B402D0A5D700D0030E001E
:10711F0001916F000E00019B6FC9D000019B5101BF
:10712F000D9D0EF324D96E000EF420DA6EDF5000A1
:10713F0001A36FAAD00101F851D8B4B5D0F60E0053
:10714F0001606F7F0E0001616FF8C162F000016393
:10715F006B000E0001656F040E646FE4EC14F060B9
:10716F00C093F061C094F00001935100019411D8C5
:10717F00B49AD0060E0001A46196D00001A451016B
:10718F000DF35000018725D96EF45000018821DAE4
:10719F006E2A0EDF6E0001A42BF60E00018F6F7F9B
:1071AF000E0001906F00018F1F901F8F4B902B00CF
:1071BF0001935100018F270001945100019023A3E7
:1071CF000E00018F25F66E760E9021F76E0001A44A
:1071DF0051010DF35000018725D96EF4500001883D
:1071EF0021DA6E0800F5CFDFFF34D00001A4510182
:1071FF000DF35000018725D96EF45000018821DA74
:10720F006EF9C1DFFF29D04FD00B0E0101F819D84D
:10721F00A44AD0060E0001A46146D00001A451017A
:10722F000DF35000018725D96EF45000018821DA43
:10723F006E2A0EDF6E0001A42B0001A451010DF385
:10724F005000018725D96EF45000018821DA6E13A2
:10725F000EDF6E0001A42BC9D70001A42B24D00090
:10726F0001968321D00001968B1ED00001A45101FD
:10727F000DF35000018725D96EF45000018821DAF3
:10728F006EA3C0DFFFE9D70FD00001A351E10AD8E9
:10729F00B4E6D7040AD8B4E6D7160AD8B44BD70742
:1072AF000AD8B4B2D7E2D700019B2B00D000019BC4
:1072BF0051800A7D0FD8B011D000019B51010D9D57
:1072CF000EF324D96E000EF420DA6EDF50D8B40519
:1072DF00D0070E0001A46521D700D0F80E00016E73
:1072EF006F010E00016F6F9D0E0001706F000E0099
:1072FF0001716F000E0001736F030E726F4CEC146F
:10730F00F083C0D9FF84C0DAFFDF500101A96F00FD
:10731F00D00001952B00D000019551800A780FD82D
:10732F00B005D0070E0001A46503D500D0020E00F2
:10733F0001A4651AD0FB0E00016E6F010E00016FE4
:10734F006FF80E0001706F010E0001716F000E00DB
:10735F0001736F030E726F4CEC14F087C0D9FF8866
:10736F00C0DAFF96C0DFFF1DD0FB0E0001606F017A
:10737F000E0001616F000E0001636F000E626F005F
:10738F000E0001656F030E646FEAEC10F083C0D935
:10739F00FF84C0DAFF87C0E1FF88C0E2FFDFCFE7DD
:1073AF00FF00D00001915100D01200004900003BB6
:1073BF0000003C00003D00003E00003F0000400088
:1073CF00004100004200007F0000810000480000E3
:1073DF00E04C003A00000000000000000000000038
:1073EF00000000000000000000000000000080000E
:1073FF0000470000E0E11DE01E000000000000005B
:10740F00000000000000000000000000000000006D
:10741F000000E027004600004C0000E01F00E020C5
:10742F0000E02100E02200000000000000E0230047
:10743F00E0E150E15200E0E14F530000E01400E0C2
:10744F001A004B0000E01500E017000000000000DC
:10745F0000E04A00E05000520000E04F00E04D0015
:10746F00E00400E016004E0000E00900E00A0029E9
:10747F0000003900004A00005000005100004F008A
:10748F00004D0000E01D00E01B00E00600E01900C9
:10749F009100002B0000280000900000E15000E157
:1074AF005100E14F00E14D0000000000000000001E
:1074BF0000000000E02A00000000000000E02C00A7
:1074CF000000000000000000000000000D0102039A
:1074DF000405060708090A1624000E0E0E0E0E0EDE
:1074EF000E0E0B2F54180E0E0E41420E0E0E235F72
:1074FF00550C0E0E0E4D4E0E0E0E175E56192526FE
:10750F0027282B2C2D2E225D57303132333437382C
:10751F00393A3B5C583C3D3E3F4043444546475B10
:10752F005948494A4B4C4F505152535A303B3C3DAE
:10753F003E3F40414243442E893A00000000000084
:10754F000000452F321E0000000000000000272D14
:10755F00391F20212200002324252634141A081550
:10756F001700001C180C1213041607090A29650BC3
:10757F000D0E0F331D1B0619052B2811103637382A
:10758F00E0E3F0E12AE2E62CE5F1E7E4303B3C3DB5
:10759F003E3F40414243442D893A00000000000025
:1075AF000000452F321E00000000000000002734AD
:1075BF002E1F2021220000232425262A141A081505
:1075CF001700001C180C1213041607090A29650B63
:1075DF000D0E0F331D1B0619052B281110363738CA
:1075EF00E0E3F0E158E2E62CE5F1E7E4003B3C3D57
:1075FF003E3F404142434400283A00000000000053
:10760F00000045F5000000000000000000004C00E5
:10761F003800290000000000002B002A001C121364
:10762F001D00000907171500040C08181A4E4B0B04
:10763F000D0E0F11371B14193433EC05100A0616F3
:10764F00E1E6E32C39E0F236F1E2E6E50000000076
:10765F000000000000000000005500FB0067540010
:10766F00005F606156005C5D5E5700595A5B2800F1
:10767F00620063002C0F162C2D040B0F162C2D2DD2
:10768F0006120F1215280000040C1808121CFA7F9E
:10769F00307FEB7D0A1D070540383028157E00002E
:1076AF00003B00003C00003D00003E00003F00009A
:1076BF004000004100004200004300004400000071
:1076CF0000002800003A0000000000000000000049
:1076DF00000000000000000000000000000000009B
:1076EF00450000E13300E0E11DF60000000000005E
:1076FF00000000000000000000000000000000007B
:10770F00000000004C0000460000380000000000A0
:10771F00F800000000000000000000000000000062
:10772F000000000000F600000000002A000000002A
:10773F0000240000250000260000000000000000CB
:10774F00000000000000310000E12D002E000000BD
:10775F000000270000210000220000230000350058
:10776F00000000000000002D0000E12F00E12600C6
:10777F00E12700E130003700001E00001F0000204D
:10778F0000000000004D00004A00000000002F0024
:10779F0000E13600E13700300000E10000E60000B4
:1077AF00E300002C0000390000E0000000000000A2
:1077BF000000F10000E20000E60000E5000000001C
:1077CF0000000000000000000000000000000000AA
:1077DF00000000000000000000000000000000009A
:1077EF00000000000000000000000000000000008A
